:020000040801F1
:10000000402F0020A1010108A9010108C502010833
:10001000BD010108BF010108C10101080000000085
:10002000000000000000000000000000C301010803
:10003000C501010800000000030201082F040108A7
:10004000CB010108CB010108CB010108CB0101085C
:10005000CB010108CB010108CB010108CB0101084C
:10006000CB010108CB010108CB010108CB0101083C
:10007000CB010108CB010108CB010108CB0101082C
:10008000CB010108CB010108CB010108CB0101081C
:10009000CB010108CB010108CB010108CB0101080C
:1000A000CB010108CB010108CB010108CB010108FC
:1000B000CB010108CB010108CB010108CB010108EC
:1000C000CB010108CB010108CB010108CB010108DC
:1000D000CB010108D5040108CB010108CB010108BF
:1000E000CB010108CB010108CB010108CB010108BC
:1000F000CB010108CB010108CB010108CB010108AC
:10010000CB010108CB010108CB010108CB0101089B
:10011000CB010108CB010108CB010108CB0101088B
:10012000CB010108CB010108CB010108CB0101087B
:10013000CB010108CB010108CB010108CB0101086B
:10014000CB010108CB010108CB010108CB0101085B
:10015000CB010108CB010108CB010108CB0101084B
:10016000CB010108CB010108CB010108CB0101083B
:10017000CB010108CB010108CB0101080000000000
:10018000CB010108CB010108DFF810D000F002F923
:100190000048004731110108AFF30080402F0020D4
:1001A0000A4880470A480047FEE71EF0040F0CBFCC
:1001B000EFF30880EFF3098000F0B6BFFEE7FEE73B
:1001C000FEE7FEE7FEE7FEE7FEE7FEE74104010883
:1001D00089010108EFF3108072B6704780F3108830
:1001E00070474C4A1368012B04D04FF00103136091
:1001F000494A1060494A116049484FF080510160F6
:100200007047EFF3108272B64248016851B34FF065
:10021000000101604048016891B1EFF309811EF0CF
:10022000100F08BF21ED108B21E9F00F4FF00004F3
:100230001EF0100F08BF012441F8044D0068016052
:1002400036490968096808C9B1E8F00F002B18BFE2
:10025000B1EC108B81F309884EF0100E002B18BF03
:100260002EF0100E82F310884EF0040E70472B49CA
:100270000860EFF3148222F0040282F31488264906
:100280004FF00000086023494FF001000860254846
:100290002549D0F8002041EA0201016020484FF0D2
:1002A0008051016021480068006880F3088861B6C9
:1002B00062B64FF0000080F31188BFF34F8FBFF399
:1002C0006F8F70471EF0040F0CBFEFF30880EFF341
:1002D00009801EF0100F08BF20ED108B20E9F00FF1
:1002E0004FF000041EF0100F08BF012440F8044D29
:1002F00040F804ED1EF0040F0CBF80F3088880F373
:10030000098800B501F020FA5DF804EB4EF0040E08
:1003100070470000F4000020EC000020F0000020F6
:1003200004ED00E020ED00E00000FFFF08ED00E03C
:1003300040EA01039B0703D009E008C9121F08C067
:10034000042AFAD203E011F8013B00F8013B521EE7
:10035000F9D27047D2B201E000F8012B491EFBD25E
:1003600070470022F6E710B513460A4604461946C0
:10037000FFF7F0FF204610BD10B5002200E0521C30
:10038000835C8C5CA34201D1002BF8D1D8B2E1B2DE
:10039000401A10BD064C074D06E0E06840F001032E
:1003A00094E8070098471034AC42F6D3FFF7F0FE0C
:1003B000383001085830010870B58C1810F8015B0E
:1003C00015F0070301D110F8013B2A1106D110F8EE
:1003D000012B03E010F8016B01F8016B5B1EF9D1F2
:1003E0002B0705D40023521E0DD401F8013BFAE778
:1003F00010F8013BCB1A921C03E013F8015B01F8E3
:10040000015B521EF9D5A142D8D3002070BD090767
:10041000090E002806DA00F00F0000F1E02080F855
:10042000141D704700F1E02080F80014704710B5EB
:1004300001F0B4F902F086F9BDE8104001F0CEB940
:1004400038B52048016841F4700101601E4B1868FE
:1004500040F0010018601C4A0832106840F080002B
:10046000106000244CF2503000940099491C009117
:100470008142FAD3116841F0900111600094009913
:10048000491C00918142FAD3106820F003001060EB
:1004900018680E4908401860186820F48020186019
:1004A0001460106808490A48091D086006480C30A5
:1004B000046002F0BBFBBDE838404FF48031C80255
:1004C00000F0CABE88ED00E000380240FFFFF6FEF3
:1004D0001030002400F0A4BC0FB4054B10B503A9E4
:1004E000044A029800F06EF810BC5DF814FB00009E
:1004F0003910010890020020002807D00E4910F0A2
:10050000FF0F04D051FA80F00078401C704710F4BF
:100510007F4F04D0C0F30720085C0930704710F407
:100520007F0F04D0C0F30740085C1130704701EB27
:100530001060007819307047162F010802E008C8D3
:10054000121F08C1002AFAD170477047002001E04D
:1005500001C1121F002AFBD1704770B50646087F03
:1005600000240D46FF2805D1304601F001FC697FCB
:10057000884207D1304600F037FA0146304601F094
:10058000EFFB0124204670BD10B502F078F800287A
:1005900006D0BDE810404FF0FF31024801F0BFBA6D
:1005A00010BD00002004002010B502F068F80028FB
:1005B00004D0BDE81040024801F03ABA10BD000076
:1005C000200400202DE9F84F9946924688460546BA
:1005D000002706E025280AD051464A4690476D1C60
:1005E0007F1C28780028F5D13846BDE8F88F002315
:1005F00015F8011F18462E2915D115F8011F0423DF
:100600002A290DD06FF02F022978A1F13004092C8E
:1006100009D800EB800002EB400008446D1CF3E7B2
:1006200058F8040B6D1C2A78002ADDD0632A07D005
:10063000732A0FD0104651464A4690477F1C2AE045
:1006400018F8042B8DF8002000218DF801106E465B
:10065000012103E058F8046B4FF0FF315A074FF0C7
:10066000000401D409E0641C84420BDA8C42FADBFA
:10067000325D002AF7D105E0641C8C42FCDB305D62
:100680000028F9D1274404E016F8010B51464A46E8
:100690009047641EF8D26D1CA3E72DE9F74F82B096
:1006A0001646044601F0B6FA01F0E9FF054604F1EA
:1006B0002C00009001F0E6FD4FF0000AC5F828A0DC
:1006C000206AA8420DD1A07FFF2802D2401CA0774B
:1006D000AEE0009801F0E1FD6FF0020005B0BDE86A
:1006E000F08F4FF0FF0978B1039830B304F1140193
:1006F000627A33468B46284601F0D2FF060024D0AA
:10070000009801F0CAFD91E0256284F81D90012057
:10071000A077207FFF2809D0284601F029FB217F00
:10072000884203DD3246206A00F004FA04F1240115
:1007300005F1780001F060F87AE00220A8620098E4
:1007400001F0ABFD6FF00100C8E701A8C5F88040DB
:1007500001F0D4FA284601F00BFBC6B2607FB0422C
:100760000BD96677206A01F003FB617F884204DDC4
:1007700002223146206A00F0DDF9019801F086FB83
:100780000398002809DD05F1480003AA0021064668
:1007900002F004F8304602F079F8009801F07DFD8F
:1007A00001F086FB009801F06DFD206AA8423FD061
:1007B000AE6A4FF000080EB96FF0080601A801F00C
:1007C0009DFA206A48B101F0D3FA0746284601F0A5
:1007D000CFFA874201D14FF00108584601F028F8BE
:1007E000F0B184F81D90B8F1000F0DD0206A00F030
:1007F000FBF80746206A01F0BBFAB84204D0022297
:100800003946206A00F096F9019801F03FFB009804
:1008100001F043FDC5F880A0002E07DD70425DE7C2
:1008200060692C3801F0A4FA6077DCE7304655E7C0
:10083000009801F032FD002050E72DE9F041044618
:1008400090F834000D46012600F00700AE40174630
:10085000022808D00AB184F8415084F840506664F8
:100860000020BDE8F081204601F054FA0FB184F871
:10087000415084F840500020666484F834002046DB
:1008800001F000FAECE72DE9F7431746044601F0C2
:10089000C1F904F12000804601F0F7FC0646A08B68
:1008A00030B1401EA0833146404601F0F9FC37E0EC
:1008B0000198A0B101F0E3FE05460920A862627A22
:1008C0003B4604F11401284601F0EAFE04000DD075
:1008D0003146404601F0E4FC2046BDE8FE83314647
:1008E000404601F0DDFC6FF00100F6E701980028BA
:1008F00009DD05F1480001AA0021044601F04EFF80
:10090000204601F0C3FF3146404601F0C9FC01F02A
:10091000CFFAA86A002803D0DFDDC0F10000DCE7D1
:100920004FF00000D9E7000010B5044605484068C4
:10093000FFF7E2FD0449401E51F830102060A1F19C
:100940002C0010BDE00000200006002030B400F1B3
:10095000140484614461C3838183427230BC2030BB
:1009600001F092BC2DE9F04104468430804601F04C
:100970008CFC0746D4F8800058B101F04BF90328ED
:1009800007D12146D4F8800000F0F8FF0020C4F819
:10099000800054F8780F0126056806E000F8066C20
:1009A000243801F045F828462D68A042F6D1394692
:1009B0004046BDE8F04101F073BC70B501F05FFE48
:1009C000044600F083FE0546204601F063FD204604
:1009D000FFF7C8FF204601F0BFFD284600F0A2FE49
:1009E000BDE8704001F064BA10B5044601F0C3F9E7
:1009F000C0B254F8781F0AE0A1F12402537F127F9D
:100A00009A4200D91A46904200D910460968A1427C
:100A1000F2D110BD2DE9FC411646DDE90A21DDE9E0
:100A200008579846044601F0AEF9C4E90857C4E9EE
:100A300006683A462321284600F076FFD4E90801EB
:100A40004218D4E90601104B121F00F089FE6061C4
:100A500004F17800E067A0670020C4F88000A0627D
:100A600060670821C4F88800CDE900012346074AE1
:100A7000194604F1480001F0F4FE04F1840001F08D
:100A800003FC0020BDE8FC81BB090108F90A01084C
:100A90002DE9F1430098A8B101F0F1FD044601F001
:100AA000B9F80026A66200F011FE8046002120461B
:100AB00001F032FE050008D0404600F033FE284623
:100AC000BDE8F8836FF00900FAE704F148006A46D0
:100AD0000021074601F062FE384601F0D7FE6FF0B4
:100AE0000800A06201F0E4F9404600F01BFEA06A95
:100AF000801CE4D1A662E2E738B5044601F08AF82A
:100B0000684601F0FBF8204601F050F96FF0010053
:100B1000A06204F12C00D0E900124A60D0E9001272
:100B200011602063E062204601F0ACF8009801F00B
:100B3000B2F938BD70B5054601F012F9002833D17D
:100B4000284601F033F900282ED0D5F88040002C3B
:100B50002AD0204601F05EF8032825D105F12C00AB
:100B600000F074FE294604F11400627A054601F093
:100B7000C3FB002818D1284600F05AFE70B1FF21AF
:100B80006177206AFFF730FF0646206A01F0F0F82F
:100B9000B04209D0256A31462846CDE760692C3835
:100BA00001F0E6F86077ECE770BD2DE9FC41054601
:100BB0000E46084601F069FB074601F0B7FDCDF887
:100BC00004D0CDF800D036E02C68143C01F0AEFD26
:100BD000A16A401A6FF00041884231D2204600F0ED
:100BE00056F8607A810702D420F00100607204F1A7
:100BF00014018846684600F00DFE3946304601F083
:100C00004FFBD4E907108847304601F03EFB07460A
:100C1000684600F014FE70B9404600F029FE607A84
:100C2000810708D5C10706D020F001006072214677
:100C3000284600F039F8284600F001FE0028C3D00D
:100C40003946304601F02CFBBDE8FC8110B5029C12
:100C500024F001044472C0E907120021C0E90931FF
:100C600000EBC1021432491C526012600129F7DB0B
:100C700010BD70B50D46044600F0E1FD10B14FF017
:100C8000FF3070BD206840692860002070BD70B5DD
:100C90000546002405EBC400143000F0E9FD641C97
:100CA000012CF7DB70BD0000F8B505460C46084680
:100CB000FFF7EDFF607A20F00100607201F036FD71
:100CC000616A6E464318A362002200950CE0076833
:100CD000A7EBC2014969994204D0C91A6FF0004CD0
:100CE000614508D346F8227005EBC20156F8220090
:100CF00049688842EBD11AB106EB8201083048609E
:100D0000521CF1D007490868401C086004F1140126
:100D1000009800F07FFD607A40F0010060720020D2
:100D2000F8BD0000B00000204FF0FF34044901F18D
:100D30000C00FFF73AFF2146024801F0BDF9F5E744
:100D4000B8000020DC040020407A400701D50248AA
:100D500070470148001F7047B800002070B51A4D59
:100D600004466A68402A2AD21848082C0CD0184E2B
:100D70000A2C1AD00D2C18D0214602F0ABF8686866
:100D80003454401C686070BD0AB1521E6A6021462E
:100D9000054602F09FF82021284602F09BF82146E4
:100DA0002846BDE8704002F095B801212AB1002024
:100DB0006970B054521C6A6070BD697070BD0020CB
:100DC0006860687070BD0000FC00002000100140E9
:100DD0000007002030B591B044216846FFF7C1FA02
:100DE0000B4C6078002810D062680A4915466846A6
:100DF000FFF79EFA0020606060701DB140216846D8
:100E000000F052F804A0FFF767FB11B030BD0000FE
:100E1000FC000020000700200D0A726F6F743E0076
:100E200038B500200B4D8DF80000094C05212846EF
:100E300001F0E3FF01280AD16946284602F034F8A0
:100E40002078002803D19DF80000FFF787FF38BD08
:100E5000FC0000200010014000B587B00E48009053
:100E6000252001900D48029003904FF4E13004904A
:100E70000020ADF81400ADF81600ADF8180040F2EF
:100E80000530ADF81A00684600F086F804A0FFF7B8
:100E900023FB07B000BD000000100140000002402D
:100EA0000D0A726F6F743E0010B5044616A1FFF76D
:100EB00063FA58B116A12046FFF75EFA002813D056
:100EC0002146BDE8104014A0FFF706BB18A0FFF7AD
:100ED00003FB1DA0FFF700FB22A0FFF7FDFABDE812
:100EE000104025A0FFF7F8BA24A0FFF7F5FABFF3EA
:100EF0004F8F27480168274A01F4E06111430160E0
:100F0000BFF34F8F00BFFDE768656C700000000005
:100F10007265626F6F7400000D0A556E6B6E6F77AD
:100F20006E20636F6D6D616E643A2025730D0A004B
:100F30000D0A417661696C61626C6520636F6D6D4D
:100F4000616E64733A0000000D0A202068656C70C1
:100F5000202D2053686F7720746869732068656C52
:100F6000700000000D0A20207265626F6F74202DE2
:100F7000205265626F6F74000D0A00000D0A7265E1
:100F8000626F6F74696E672E2E2E0D0A00000000CE
:100F90000CED00E00400FA0570B5264E044600256D
:100FA00005EBC50006EB80002168C268914209D1BB
:100FB000A1680269914205D1E1688269914201D13B
:100FC00001F026FF6D1C0B2DEAD3206801F0D2FE44
:100FD0002169206801F086FE0021206801F04EFFA3
:100FE0000021206801F06EFFA18A206801F08BFFCC
:100FF000E18A206801F079FF218B206801F046FF2B
:101000000821206801F079FF0421206801F046FFE3
:10101000618B206801F028FF4FF4407000F012F956
:10102000207900220F2100F0C3F82068BDE870404D
:1010300001F0DEBE0401002010B50446C1B2024832
:1010400001F048FF204610BD00100140F0B5046AD1
:10105000456A00234FF0010C4FF00F0E0CFA03F617
:10106000164206D09E000EFA06F7BC4301FA06F7B8
:101070003C435B1C9BB2082BF0D308230CFA03F60D
:10108000164207D09E00203E0EFA06F7BD4301FA35
:1010900006F73D435B1C9BB2102BEFD30462456205
:1010A000F0BD2DE9F0470568C66800244FF0010A3D
:1010B0004FF003090AFA04F71F420ED0670009FA3D
:1010C00007FC25EA0C0526EA0C0601FA07F802FAE5
:1010D00007FC48EA05054CEA0606641CA4B2102C7D
:1010E000E8D30560C660BDE8F087F0B50129416826
:1010F00018D099434160846800210126032706FA2D
:1011000001F51D4208D04D0007FA05FC24EA0C0445
:1011100002FA05FC4CEA0404491C89B21029EED3FA
:101120008460F0BD1943E5E7704700F0B3FAFCE7CF
:101130003EB5FFF74FF81B484FF47A714FF0FF357B
:101140000068B0FBF1F1491EB1F1807F0AD24FF087
:10115000E02461610F212846FFF759F90020A061C2
:101160000720206100212846FFF751F9FFF774FEA0
:101170000D490E4801F0F7F801F044F901F016F9B5
:1011800000F02CFA02AA01A9684600F0B3FB01F0B6
:1011900047F901F0FDF901F0F5F901F01BF9002024
:1011A0003EBD00000000002000800120402F0020F4
:1011B00070B5054622480E46002401682346C1F357
:1011C000022107291AD00168C1F30221062917D08C
:1011D0000168C1F3022105290DD00168C1F3022184
:1011E000042910D00068C0F3022003280ED04FF469
:1011F000A06000F027F80224234608E0042306E05C
:101200000124032303E00324012300E00424C4F1A8
:1012100004008640C3F104010F20C8401040304351
:1012200005F1E021000181F8000405F01F01012013
:1012300088406909890001F1E021C1F8000170BD11
:101240000CED00E0024908430249086070470000C5
:101250000000FA050CED00E0034A11400143034889
:101260000160BFF34F8F704780FFFF1F08ED00E064
:1012700030B5826A4B6800241A44914211D0137829
:10128000DB070ED1C36A93420BD0036B934200D1AC
:101290000163146053684B60836A5268CD1A1A4424
:1012A0009560826A8B681A448A420ED01378DB07F5
:1012B0000BD1036B8B4200D102630C604B6853600F
:1012C000806A4968121A0844826030BD2DE9F04FE7
:1012D0008BB00E46DDE9169704469B4615464FF047
:1012E000000A20216846DDF85480FFF73AF8002014
:1012F0004146CDF820907A0602D5DFF8A0C103E080
:10130000DFF898C1ACF1110CFA0601D527F00107FE
:10131000FA0701D0302200E020220992BA071AD53C
:10132000149B6A424C2B01D0682B05D0002D0ADAA1
:101330004FF02D0A15460EE02BB2002B03DA4FF0CA
:101340002D0A95B207E07A0701D52B2202E03A0771
:1013500001D520229246BA060ED5BBF1020F06D067
:10136000BBF1100F03D0BBF1080F03D004E0A8F1CC
:10137000020101E0A8F101014FF0300EE846C5B1CD
:101380005A46B5FBF2F30BFB1353B5FBFBF51CF808
:10139000032008F80020401C002DF1D1484500DD55
:1013A0008146A1EB090117F0110F4FF0200204D084
:1013B00012E08DF800E00120F0E7BAF1000F07D04D
:1013C000002905DD491E03E0B44200D22270641CEE
:1013D0000B1EA1F10101F7DCBAF1000F05D0B442F8
:1013E00001D284F800A0491E641CBB0625D5BBF1C0
:1013F000020F06D0BBF1080F0CD0BBF1100F0ED0BE
:101400001BE0B44201D284F800E0641CB44213D261
:10141000622310E0B4420FD284F800E00CE0B44242
:1014200001D284F800E0641CB44205D27B0601D5E9
:10143000582300E078232370641CFB0605D508E0E0
:10144000B44201D2099B2370641C0B1EA1F101015F
:10145000F6DC75464F46A9F1010987420ADDB44220
:1014600000D22570641CF5E7B44202D218F80030AF
:101470002370641C031EA0F1010007DD089B002BF4
:10148000F2D103E0B44200D22270641C081EA1F124
:101490000101F7DC0BB02046BDE8F08F27300108D2
:1014A000F0B52FA188B03AC98DE83A002DA1304C93
:1014B000D1E90031CDE904312AA10246D1E9003158
:1014C000CDE90631216800202A4BC1F3810129B101
:1014D000DFF8A4C0012903D0022903D019461AE07D
:1014E000614618E02249091F0D6805F03F070D68A5
:1014F000C5F388160D680968C5F301456D1C6D00BC
:1015000001F48001B1F5800F00D16346B3FBF7F120
:101510007143B1FBF5F123682568C3F303131DF88C
:10152000033021FA03F3C5F3822504AE2468755D08
:1015300023FA05F5C4F3423406AE345D23FA04F40D
:1015400042B1012A08D0022A08D0032A00D120463D
:1015500008B0F0BD0846FBE71846F9E72846F7E76C
:101560000000000000000000010203040607080953
:10157000083802400024F40040787D01064901EB60
:101580009011D1F8002800F01F0301209840024379
:10159000C1F800287047000000300240064901EB06
:1015A0009011D1F8002800F01F03012098408243D9
:1015B000C1F800287047000000300240064901EBE6
:1015C0009011D1F8002800F01F0301209840024339
:1015D000C1F8002870470000003002401CB505210A
:1015E0001920CDE900014FF480730022074908A0BB
:1015F00000F071FF0849086018B101F045F807A034
:1016000000E011A0BDE81C40FEF766BFD92C010820
:101610007468726561643100F80000200D0A3D3D78
:101620003D3D3D3D3D3D3D3D3D3D3D3D6372656143
:1016300074652074687265616431207375636365D5
:1016400073730D0A000000000D0A3D3D3D3D3D3D18
:101650003D3D3D3D3D3D3D3D63726561746520749A
:10166000687265616431206661696C65640D0A00A9
:1016700008B100207047014870470000CC000020EE
:1016800000487047CC0000200148408880B2704775
:10169000E000002070B500F043FF040014D0666F36
:1016A00000F0E8FA0546012802D1204600F086FA4B
:1016B0000EB12046B047002DEDD1206A00F034F87D
:1016C000204600F062FAE6E770BD000010B5FEF7B4
:1016D00081FD044A5188491C0CB25480FEF77EFDFE
:1016E000204610BDE000002070B5FEF773FD0C4CE5
:1016F0006188491E09B2618000290BDC00256580E4
:10170000FEF76CFD6078012808D16570BDE8704077
:1017100000F0CEBBBDE87040FEF760BD70BD0000BC
:10172000E0000020FFF7E0BF70B504000AD0FEF72C
:101730002BFF0546204600F023FD2846BDE87040FB
:10174000FEF732BF70BD0000044910B509682830AB
:1017500011B18847002800D0FEE710BDE800002046
:1017600070B50546121D22F0070044380A4C0646A3
:10177000002240F82240521C112AFAD34162002173
:101780008162C1624FF0807200F13404026401632F
:1017900084E82A00316070BDEFBEADDE10B5FEF703
:1017A00019FD04490A680A68521C0A60BDE8104025
:1017B000FEF714BD0800002070B5FEF70BFD0546CE
:1017C000FEF708FD04490C68FEF708FDE4B2284660
:1017D000FEF704FD204670BD0800002010B5FEF79E
:1017E000F9FC04490A680A68521E0A60BDE8104004
:1017F000FEF7F4BC080000200268516002680A602D
:101800000160486070470268516002680A600160C8
:10181000486070470268516002680A600160486071
:1018200070474268116042684A60416008607047D2
:101830000168814201D10120704700207047016892
:10184000814201D10120704700207047D0E9001289
:101850004A60D0E900121160406000607047D0E932
:1018600000124A60D0E900121160406000607047C9
:10187000D0E900124A60D0E90012116040600060B7
:101880007047000070B50546FEF77EFE0446054829
:101890002946006800F013FC05462046FEF784FE4A
:1018A000284670BD0C00002010B50346102A1DD339
:1018B00041EA0304A40719D110C9103A10C310C992
:1018C000102A10C351F8084B43F8084B51F8044C48
:1018D00043F8044CF0D202E010C9121F10C3042ACE
:1018E000FAD203E011F8014B03F8014B521EF9D272
:1018F00010BD000070B514460D460646FEF744FEC6
:10190000084916B10A68D269326015B10A68126ACC
:101910002A6014B10968496A2160BDE87040FEF789
:1019200043BE00000C00002038B500230446CDB2B1
:101930000093042A1FD381071DD121466C46E5542C
:101940005B1C042BFBD30AE0009B103A08C1009BF0
:1019500008C1009B41F8083B009B41F8043C102A59
:10196000F2D202E0009B121F08C1042AFAD20C46F0
:1019700001E004F8015B521EFBD238BD2DE9F843AB
:1019800004462C300E460025804600F07BFC68465D
:1019900000F0B4F906F12C00FFF758FF206A40B1BF
:1019A00000F0E6F90746304600F0E2F9874200D140
:1019B000012504F11400FFF73BFFC0B1FF20607761
:1019C0006DB1206AFFF710F80546206A00F0D0F9E3
:1019D000A84204D002222946206AFFF7ABF80098FB
:1019E00000F054FA404600F058FCBDE8F883606906
:1019F0002C3800F0BDF9E2E710B50A460446032191
:101A000000F00CF904F11400A06160610020FF21D6
:101A100020626177A077217704F12400A0626062E0
:101A20000120607204F12C0000F02EFC002010BD9B
:101A30002DE9F84F044600F0EDF8002600F01FFEF7
:101A4000054604F12C00834600F01CFC206AA842E5
:101A500007D0741E5846AC6200F01FFC2046BDE85B
:101A6000F88FA07F401E10F0FF00A0771BD16846C2
:101A700000F044F904F124008146FFF7E7FE214617
:101A80002846FEF76AFD064604F114008246FFF779
:101A9000CFFE00274FF0FF0858B1009800F0F6F98C
:101AA000276284F81D80584600F0F7FB012E32D0E3
:101AB00033E065692C3D284600F078F905F12C00EB
:101AC000FFF7C4FE284600F076F990B98DB10120E9
:101AD0002562A077494605F17800FFF78DFE504654
:101AE000C5F88070FFF7A4FE78B184F81D80012648
:101AF00007E05046FFF79CFE0028DAD0276284F802
:101B00001D80009800F0C2F9CDE760692C3800F024
:101B10002FF96077EBE700F0CBF900209FE7022276
:101B2000FEF7BBBD2DE9F0418846064600F05CF8A3
:101B30000546C068FFF7A6FE041E24D00021EA680F
:101B4000FFF7F2FE267200266672B8F1000009D097
:101B500000F0B0FB0746024641462046FFF7A4FED0
:101B6000E65500E0267005F11000074600F08DFBF9
:101B7000064604F10C01281DFFF745FE31463846A4
:101B800000F08EFB2046BDE8F08170B50446007A77
:101B900000F02AF81030054600F077FB064604F105
:101BA0000C00FFF75CFE3146284600F079FB002070
:101BB00020722046BDE87040FFF7B6BD70B5044600
:101BC000007A00F011F81030054600F05EFB064682
:101BD00004F10C00FFF743FE3146284600F060FB9D
:101BE0000020207270BD000020F080020849002013
:101BF00000EB800311F82330934204D100EB800006
:101C000001EB80007047401C0828F1DB0020704782
:101C100010000020007A20F0800070472DE9F0418C
:101C2000044617460E460846FFF7DEFF054646F017
:101C30008000207200265FB1384600F03BFB8046F2
:101C4000024639462046FFF72FFE04F8086000E000
:101C5000267005F11000064600F017FB074604F158
:101C60000C01281DFFF7CFFD39463046BDE8F04195
:101C700000F016BB007A000601D501207047002055
:101C80007047000070B50446FEF7A4FA054600F060
:101C9000F6FCA04206D114F8340F20F00700C01C57
:101CA000207021E094F83400124920F00700801CD5
:101CB00084F83400020794F8402004F12C0001EB72
:101CC000C20106D54A6810604A68426048600160F7
:101CD00005E00A6850600A680260086041600648D2
:101CE000616C4268114341602846BDE87040FEF7D0
:101CF00075BA000000060020E000002010B50400C6
:101D000004D0FEF767FA2060002010BD6FF00900D4
:101D100010BD000070B50546FEF75CFA05F12C0415
:101D20000146D4E900024260D4E9000210602C634D
:101D3000EC6295F84000084A02EBC000026882425B
:101D400004D106486B6C42689A434260BDE870401B
:101D50000846FEF743BA000000060020E00000201D
:101D60000022FEF76ABD012180F834100020704780
:101D700090F84000704790F84100704790F83400A8
:101D800000F007007047002380F83430AFF3008084
:101D900000F12C030363C36280F8412080F84020E7
:101DA0000022426440F8381F4160704790F83400C8
:101DB000C0F38000704770B5064690F83400C0F359
:101DC000800048B196F83500800708D5304600F00D
:101DD00026F8050004D010E06FF009050DE000259D
:101DE00006F12C04D4E900014160D4E90001086047
:101DF00034633046F462FFF745FF284670BD90F823
:101E00004020012191404164042180F83410704742
:101E100010F8351F41F0020101700020704710B525
:101E2000044690F83500800709D504F1480000F019
:101E300063FD14F8351F21F00201217010BD002050
:101E400010BD816BC16310F8341F41F008010170AF
:101E50000020704738B5054600F011FC044668467E
:101E6000FFF74CFFE06BA84206D9401BE06305D0AA
:101E7000009800F00BF807E00020E0632046FFF731
:101E8000E0FF009800F007F8002038BD10B5FEF71D
:101E9000A5F9002010BD10B5044600F0F0FB08B114
:101EA00000F006F82046FEF799F9002010BD00006A
:101EB0002DE9F84300F0E3FB0546FEF78BF9324FBE
:101EC0008046788830B1012078704046BDE8F843FC
:101ED000FEF784B978680028F7D000266846FEF738
:101EE00023FD044695F8340000F0070103290AD1C8
:101EF00095F84010009A914202D303D1000701D413
:101F00002C4600E00126AC4234D000983870FFF730
:101F1000B7FB046016B12846FFF7B4FE95F834000D
:101F2000010703D520F0080085F834002046FFF7AC
:101F3000F1FE94F8340020F00700C01C84F834004F
:101F4000204600F025F81148006840B123462A4693
:101F500004F1140105F11400FEF743F9B5E704F1AB
:101F6000140105F11400FEF73CF94046FEF736F97E
:101F7000BDE8F8832846FFF7CDFE15F8340F20F0B2
:101F80000700C01C2870A0E7E00000200800002027
:101F9000016A0A78232A06D142698A4203D9406A33
:101FA0000844904202D201200028FDD170472DE95B
:101FB000F04715460E460446FFF72CFE04F11408C0
:101FC00004F12007012E05D0032E11D04FF0FF3071
:101FD000BDE8F087384600F058F906460121404632
:101FE00000F0B6F9A5833146384600F059F91FE0F4
:101FF000ADB20026681E4FF6FF71884202D36FF023
:102000000900E5E7384600F040F98146A08BA84278
:1020100008D94046FFF70CFC20B90121404600F0EA
:1020200097F90126E5834946384600F039F90EB1A3
:10203000FFF73EFF0020CBE770B514460A461E4668
:1020400005460221FFF7EAFDA1B24FF6FF733246C3
:102050002846FEF77BFC002070BD2DE9F0410446C8
:10206000FFF7D8FD04F120000025804600F00DF9AF
:10207000064604F114000746FFF7DAFB30B1A08BE7
:10208000E18B884211D2401CA08304E00021384635
:1020900000F018F901253146404600F001F90DB174
:1020A000FFF706FF0020BDE8F0813146404600F012
:1020B000F7F86FF00200F6E70222FEF7E4BB2DE925
:1020C000F0410D00044659D0FFF7A4FD2046FFF76C
:1020D000D1FDED1C25F003020C2A00D20C22616B0D
:1020E00091424BD3A36A206BC01A8E1A44E0191890
:1020F0000D78ED073ED14D682D1A0C3D954239D330
:102100004D6802F118072E1A0C3EBE4220D38518E6
:102110000C352B4424F001061E604E68C3E90160B3
:102120004D605868636B0C33984202D0A36A184420
:102130008560206A0C3210442062626A824200D2BA
:10214000606244F001000860206B884208D00DE016
:10215000C81A281A226AEEE7A26A4068104420636F
:102160000278D20702D0E26A9042F5D101F10C0068
:10217000BDE8F081001D18588642B8D20020F7E76C
:1021800070B500281ED0A0F10C04206820F00105D5
:102190002846FFF73FFD2846FFF76CFD25F00100BC
:1021A0002060286BA04200D92C63A96A6068611A7C
:1021B000401A296A081A286221462846BDE870405C
:1021C000FFF756B870BD00002DE9F0410646C81C67
:1021D000134620F0030404F13802D01C20F003055C
:1021E000C81820F00300182830D9A0F11801914236
:1021F0002CD3471B382200212046183FFFF794FBC1
:1022000032460C212046FFF709FD04F1140110A00D
:1022100081E8A1006763A5622C60606B0C30686088
:102220000020A860A06A6968084444F00101E062E7
:102230000160606BE16A0C304860606BE16A0C30F1
:102240008860A06A20632046BDE8F0810020FBE79B
:10225000736D616C6C0000000FB410B505AB049A8F
:1022600000F06CFB10BC5DF814FB70B50E46044624
:10227000FDF7B0FF2568216831442160FDF7AEFF0E
:10228000284670BDFFF722BA704710B5FDF7A2FFD0
:102290000446FFF71BFA204610BD0020FFF742BAA4
:1022A00010B50C460020FFF73DFA2046BDE810406F
:1022B000FDF794BF014600E0491C0A78002AFBD1D3
:1022C000081A704738B504460D466846FFF716FDF4
:1022D0002046FFF7ADFA28B924682C3C2046FFF7CA
:1022E0006AFD08B1002402E0002D00DBA562009821
:1022F000FFF7CCFD204638BD2DE9F047054601F13A
:102300002C008946804612B1012A1ED101E0014607
:1023100018E02C6811E0A4F12C064846FFF728FDD0
:1023200007463046FFF724FD874205DA414606F1AD
:102330002C00FFF776FA02E02468AC42EBD1AC4205
:1023400003D141462846FFF76CFA0020BDE8F0872C
:1023500070B50C460546FFF7B5FF002802D02146B0
:102360002846F8E770BD00F001B800000A46C01C1E
:1023700020F0030122F0030010B5421A05A0FFF778
:1023800023FF064901220860BDE8104004A1064869
:10239000FFF732BB68656170000000000C00002090
:1023A00068656170000000002004002010B5074B34
:1023B0000022074C5A80104604EBC001401C4960C3
:1023C00009602028F8DB5A6010BD0000E000002002
:1023D0000006002038B56846FEF7A6FA0446FFF767
:1023E0004FF907490460002048702046FFF792FC2F
:1023F000032084F8340004F11400FDF738FF38BDE1
:10240000E0000020054A002002EBC001401C4960AA
:102410000960F9D001480838FFF736BFBC0000203A
:102420001FB5154A002002EBC001401C496009603D
:10243000F9D011480C38FFF727FF012300220FA124
:102440001048FFF7F9FD012203210E48FFF7AFFD09
:102450000C4804220A23910124308DE80F00002348
:10246000094A0AA1B03800F0CDF804B00548BDE82B
:1024700010408C3800F008B9C40000207374696DF6
:1024800065720000DC040020290D010874696D6587
:102490007200000038B5044600F0F1F8A04201D106
:1024A000FFF7F2F86846FFF729FC2046FFF766FCC5
:1024B000C1B201290AD011B12046FFF72BFC04F16B
:1024C000480000F0B0F92046FFF74DFC0098FFF7F8
:1024D000DDFC002038BD2DE9FF478946DDE90C769B
:1024E000824601461D4690460120FFF71BFB041E55
:1024F0000DD02846FFF7C6F960B103968DE8A1001C
:1025000043464A4651462046FEF784FA204604B028
:10251000BDE8F0872046FFF738FB0020F7E7000012
:1025200070B50C4C0025201FFFF7AFFE0146206858
:10253000A04209D0D0E90023A0F12C055360D0E9D6
:1025400000231A60406000600248001FFFF7A8FEE9
:10255000284670BDD800002010B504460848FFF793
:1025600094FE014606482C34001D0268546002683F
:10257000226004606060BDE81040001FFFF790BE5D
:10258000D40000200148FFF77FBE0000D4000020E7
:102590002DE9F047DFF85CA0002486B020274FF03B
:1025A0001F084FF48079AAF18C06234612A2082155
:1025B00004A8FFF751FE0AEB0421C4EBC400CDE9E7
:1025C000001900EB8000CDE9028706EB80050023AF
:1025D0000B4A04A9284600F015F82046FFF748F8F2
:1025E0004560284600F050F8641CDED006B0BDE817
:1025F000F0870000200300207469646C6525640086
:102600002B1101082DE9FF5F0F460EA9924691E8B4
:102610007001994683468C220021FFF785F93A46DE
:1026200001215846FFF7FAFA8DE870014B465246F1
:1026300039465846FEF7EEF904B0BDE8F09F10B5F4
:1026400000F06FF8BDE81040FEF722BA38B5044636
:10265000FFF7E0FA6846FFF751FB2046FFF7ABFBB8
:102660000400009803D0FFF711FC204638BDFFF7A7
:1026700012FC044610F1120FF7D10024F5E710B553
:10268000FEF7FEFF006810BD10B50446FFF7C2FA62
:102690002046FFF7B4FB2046FFF7D8FF002010BD0F
:1026A000F8B51D4617460E460446FFF7B3FAFEF787
:1026B000E7FF6846FFF722FB2046FFF75FFB022893
:1026C00009D0032805D00098FFF7E0FB4FF0FF305A
:1026D000F8BDFEF7D5FF2046FFF71CFB072015B11C
:1026E000012D03D101E0042000E0062094F834100D
:1026F00021F007010143204684F8341026B1014639
:102700003A463046FFF7F8FD2046FFF788FB009871
:10271000FFF7BCFB0020F8BD0B4600221146FFF777
:10272000BFBF002801DA4FF0FF30704710B5FDF74A
:1027300051FD03490C68FDF751FD204610BD000016
:102740000400002010B5FFF737F801210448FFF717
:102750008CFD0120FFF77EFBBDE8104000F002B8C1
:102760000400002008B5FFF727F869460948FEF77E
:1027700080FA38B9FFF7DAFF0099884202D3064899
:10278000FFF76BFC0349103901F10800FEF70DFA61
:1027900008BD0000C4000020DC0400202DE9F04149
:1027A00015460E460446FFF735FA2046FEF7CCFAEA
:1027B0008046FFF76AFD07460A2E2DD2DFE806F0B5
:1027C000070514181D232527292B606A19E0607A54
:1027D000C00706D02046FEF75AFA607A20F00100C2
:1027E00060722868606217E0607A20F0020002E000
:1027F000607A40F0020060720EE0607AC00700D09C
:102800000120286008E0A06AFBE7E069F9E7E561DC
:1028100002E0206AF5E7256239464046FFF740FDB1
:102820000020BDE8F08170B50446FFF7F3F92046BB
:10283000FFF720FA2046FEF787FA0546FFF725FD49
:1028400006462046FEF723FA607A314620F0010062
:1028500060722846FFF724FD2046FFF7AFF90020FD
:1028600070BD2DE9F8439046DDE908450A461F464C
:1028700006460A21FFF7D2F923463A46414630463A
:102880000095FEF7E3F9BDE8F88300002DE9F84371
:1028900005460024FFF7BEF9687A410703D5154EB7
:1028A000A6F10C0703E0134E083EA6F10807000747
:1028B0000BD501246846FFF721FAA5F148008046B0
:1028C000FFF7A8F94046FFF7A3FA3846FFF7DDFC0B
:1028D000804629463046FEF7E7F905464146384628
:1028E000FFF7DEFC14B10098FFF7D0FA2846BDE8E8
:1028F000F8830000C400002070B50446FFF78AF991
:102900002046FEF721FA0646FFF7BFFC0546607A2F
:10291000C0070CD02046FEF7BAF9607A294620F0AD
:10292000010060723046FFF7BBFC002070BD2946F5
:102930003046FFF7B5FC4FF0FF3070BD2DE9FF4F7B
:1029400085B08146044606981F4609EB00084FF003
:10295000FF3B4FF0200AA04503D2C9F1FF30D84613
:10296000069013E1252803D0444500D2207028E1C9
:1029700000250799491C079108782D2811D02B288C
:1029800012D0202813D0232814D0302815D00A784C
:102990005E46303A0A2A13D207A800F033F90646F9
:1029A00018E045F01005E4E745F00405E1E745F0DF
:1029B0000805DEE745F02005DBE745F00105D8E72F
:1029C0002A2807D1491C079140CF002E02DA76420F
:1029D00045F010050798DC4601782E2916D1401CD9
:1029E00007900178A1F130020A2A04D207A800F06A
:1029F00009F9844605E02A2906D1401C079057F8BA
:102A000004CBBCF1000F01DA4FF0000C0799002352
:102A10000878682803D06C2801D07A280AD1491C8C
:102A200003460791682805D10878682802D1482311
:102A3000491C079107980A21007865280BD012DC01
:102A400058286FD008DC25287CD0452803D046289C
:102A500001D0472868D1A5E0622877D0632815D037
:102A6000642861D17BE070285FD008DC662868D0DC
:102A7000672866D0692872D06F2855D168E073281E
:102A80001ED075286DD078284ED165E0E80608D4B0
:102A90005146761E002E04DD444500D22170641C90
:102AA000F7E717F8040B444500D22070514602E0C6
:102AB000444500D22170641C761E002EF8DC62E0D2
:102AC00001CF00B94DA0002100E0491CB14202D065
:102AD000425C002AF9D1BCF1000F02DD614500DD46
:102AE0006146EA0609D452463346761E8B4204DD1F
:102AF000444500D22270641CF6E7002206E04445FB
:102B000001D203782370401C521C641C8A42F6DBFD
:102B100052463046761E884235DD444500D222704A
:102B2000641CF6E716E00DE040E0701C02D10A26B6
:102B300045F0210503958DE8481004CF10231DE0D2
:102B400004E02FE044453CD225200FE7022108E0B5
:102B5000082106E045F04005102102E0FFE745F0BE
:102B600002054C2B32D06C2B03D0482B34D0682B71
:102B700036D004CF03958DE848100B4641462046D9
:102B8000FEF7A4FB04460798401C079007980078BE
:102B900000287FF4E7AE069858B30021444526D2BA
:102BA000217026E0FF1D27F007070837444501D2B2
:102BB000252020700798641C017821B1444500D27B
:102BC0002170641CDFE7401E0790DCE7FF1D27F043
:102BD000070757F8082BCDE717F8040B42B2C9E7EF
:102BE00037F8040B82B2A807C4D512B2C2E708F8BE
:102BF000011C09B0A4EB0900BDE8F08F286E756CCC
:102C00006C29000010B5024600206FF02F0407E089
:102C10004B1C1360097800EB800004EB4000084473
:102C200011680B78303B0A2BF2D310BD274A10B540
:102C30001168002041F4803111604FF6FF73116874
:102C4000401C11F4003F01D19842F8D11068800374
:102C500000D4FEE71D484030016841F0805101601A
:102C60001B49086840F44040086018480830036871
:102C70000360036843F400430360036843F4A05314
:102C80000360041F134B2360136843F080731360C9
:102C900013689B01FCD50A6842F480320A604A68D6
:102CA000D203FCD50A6842F400320A604A689203F3
:102CB000FCD5016821F003010160016841F00201C7
:102CC000016001680907FCD510BD00000038024012
:102CD0000070004019544007FEF77CF83220FFF7DF
:102CE000AEFCF9E770B51D4A05460C460020A91A4E
:102CF0001315954225D00BDC19496A1821D09A4248
:102D00001FD0B2F5006F1CD0B2F5406F0BD118E0A8
:102D1000994216D0B1F5184F02D0B1F51C4F02D12F
:102D20000320FEF7BDFBE9680A044FF6F0710AD5EF
:102D3000400000EB5400B0FBF4F00140C0F342024D
:102D400008E00220EDE700EB5400B0FBF4F0014096
:102D500000F00F021143A96070BD00000078004030
:102D600000BCFFBF4068C0F308007047C1F3080112
:102D7000416070471C4A10B5811A1315904225D046
:102D80000DDC1A49401818D0984219D0B0F5006FE0
:102D900019D0B0F5406F26D140F614041BE09942DB
:102DA00017D0B1F5184F05D0B1F51C4F1BD140F627
:102DB000051410E040F604140DE040F611040AE09A
:102DC00040F6120407E040F6130404E040F61E0447
:102DD00001E040F61F042046FEF7F0FB2046BDE868
:102DE0001040FEF7DBBB10BD0078004000BCFFBF09
:102DF000C16841F40051C160704700EB9110006858
:102E000001F01F0201219140084000D001207047CD
:102E100010B50446008880B2FEF7B0FBA08880B2EF
:102E2000FEF7ACFB208980B2FEF7A8FBD4E90403CF
:102E300000220221FEF735F9D4E90402216AFEF7E7
:102E400005F9D4E9040302220021FEF74EF9D4E982
:102E5000060300220221FEF724F9D4E90602216AC2
:102E6000BDE81040FEF7F2B800EB9110026801F0E7
:102E70001F03012199400A4302607047C26822F48F
:102E80000042C260C2680A43C2607047C26822F44E
:102E9000C062C260C2680A43C2607047C26822F062
:102EA00004020A43C260704770B50C46054605210E
:102EB0002846FFF7A2FF0028F9D02846FFF752FF67
:102EC000207070BD426922F40062426142690A4387
:102ED0004261704710B50446FFF748FF07212046BE
:102EE000FFF78BFF0028F9D010BD026922F4405291
:102EF000026102690A4302617047C26822F0080257
:102F00000A43C2607047C26822F48052C260C2683D
:102F10000A43C26070470000010002000100030084
:102F20000100020001000400010002000100030092
:102F30000100020001000500010002000100030081
:102F40000100020001000400010002000100030072
:102F50000100020001000600010002000100030060
:102F60000100020001000400010002000100030052
:102F70000100020001000500010002000100030041
:102F80000100020001000400010002000100030032
:102F9000010002000100070001000200010003001F
:102FA0000100020001000400010002000100030012
:102FB0000100020001000500010002000100030001
:102FC00001000200010004000100020001000300F2
:102FD00001000200010006000100020001000300E0
:102FE00001000200010004000100020001000300D2
:102FF00001000200010005000100020001000300C1
:1030000001000200010004000100020001000300B1
:10301000010002000100303132333435363738399F
:103020006162636465660030313233343536373877
:103030003941424344454600583001080000002011
:1030400094020000B80301084C31010894020020EA
:10305000AC2C00004C05010811C47A030A3201228D
:10306000142A2004728C32021A2810290472243285
:10307000031A3C102904723032051A5010290472C8
:103080003432061A64102904724029711A78102902
:1030900004722C320C1970297429685132101AA04C
:1030A000102904022F1C1AD834290401245B0411AE
:1030B0008129041B1001A73B0240F5290822049A2C
:1030C0000724AA01242A80193402400869242920EF
:1030D0007924191C39F41908292B29242A11D569B6
:1030E0006C124439481963396C69481A12247948BA
:1030F0001A4824194029883908192569241A0220F8
:1031000029043924812C080240F5091324191C399B
:103110004829085948AA13904A4C905A01905A02DB
:1031200048292479482924D94829B85A14242A033B
:10313000245A5024395C49E029249B0411483B144B
:0C314000012439B919085A80244100000C
:040000050801018964
:00000001FF
