:020000040800F2
:10000000D0A50020AD010008B5010008B701000827
:10001000C9010008CB010008CD0100080000000064
:10002000000000000000000000000000490100087E
:10003000D1010008000000005D010008D5010008A2
:10004000E7010008E7010008E7010008E7010008F0
:10005000E7010008E7010008E7010008E7010008E0
:10006000E7010008E7010008E7010008E7010008D0
:10007000E7010008E7010008E7010008E7010008C0
:10008000E7010008E7010008E7010008E7010008B0
:10009000E7010008E7010008E7010008E7010008A0
:1000A000E7010008E7010008E7010008E701000890
:1000B000E7010008E7010008E7010008E701000880
:1000C000E7010008E7010008E7010008E701000870
:1000D000E70100081D060008E7010008E701000825
:1000E000E7010008E7010008E7010008E701000850
:1000F000B5050008E7010008E7010008E70100086E
:10010000E7010008E7010008E7010008E70100082F
:10011000E7010008E7010008E7010008E70100081F
:10012000E7010008E7010008E7010008E70100080F
:10013000DFF810D000F012F9004800471510000851
:10014000AFF30080D0A500201EF0040F0CBFEFF32A
:100150000880EFF3098000F0BBB90000EFF30980DD
:1001600020E9F00F0E490A680E4B4FF0180402FB0D
:1001700004F52B4403F10C0318600B4C24680C604D
:10018000084B4FF0180504FB05F6334403F10C034C
:100190001868B0E8F00F80F309886FF0020E70471E
:1001A0002000002070000020240000200E4880471E
:1001B0000E480047FEE71EF0040F0CBFEFF3088067
:1001C000EFF3098000F00DBFFEE7FEE7FEE7FEE774
:1001D000FEE7FEE71EF0040F0CBFEFF30880EFF31D
:1001E000098001F0F9B8FEE759050008310100085F
:1001F00040EA01039B0703D009E008C9121F08C0A9
:10020000042AFAD203E011F8013B00F8013B521E28
:10021000F9D27047D2B201E000F8012B491EFBD29F
:1002200070470022F6E710B513460A460446194601
:10023000FFF7F0FF204610BD10B5002200E0521C71
:10024000835C8C5CA34201D1002BF8D1D8B2E1B21F
:10025000401A10BD30B504460020034600E05B1C88
:10026000934203D2E05CCD5C401BF8D030BD70B54A
:10027000064600F0E5F9046805460A2200213046EA
:1002800000F033F82C6070BD2DE9F05F05460020CA
:1002900092469B4688460646814640241BE02846F7
:1002A00041464746224600F07AF853465A46C01A5D
:1002B000914110D311461846224600F061F82D1ADC
:1002C00067EB01084F4622460120002100F058F854
:1002D00017EB00094E41201EA4F10104DFDC484663
:1002E00031462A464346BDE8F09F2DE9F047914646
:1002F0000F4680460446002614F8015B2DB100F03D
:100300005FF80068405DC007F6D12B2D02D02D2D7F
:1003100018D0641E4A463946204600F055F827B1E9
:100320003968A14201D1C7F8008071054FF002047D
:100330000BD54042002803DD00F082F90460A007DD
:10034000BDE8F08746F48066E4E70028F8DA00F0BC
:1003500077F904606FF00040F2E70000064C074DAB
:1003600006E0E06840F0010394E807009847103485
:10037000AC42F6D3FFF7E0FE281800084818000842
:10038000202A04DB203A00FA02F100207047914055
:10039000C2F1200320FA03F3194390407047202A4A
:1003A00004DB203A21FA02F00021704721FA02F31F
:1003B000D040C2F120029140084319467047000026
:1003C00000487047BC1700082DE9F05F82460078AE
:1003D000002715468B460AF10104B946302801D0A2
:1003E0009DB113E014F8010B0127782803D0582899
:1003F00001D045B10AE00DB1102D07D1002710251D
:1004000014F8010B02E0082500E00A250026B0469A
:100410000EE005FB080005FB06F1012701EB104685
:100420001FFA80F8B6F5803F00D3B94614F8010BE7
:10043000294600F018F80028EBDABBF1000F05D0D0
:100440000FB1641E00E05446CBF80040B9F1000F34
:1004500006D000F0F5F802210160C81EBDE8F09F4B
:1004600048EA0640FAE73A2800D2303820F0200265
:10047000412A01D3A2F13700884201D34FF0FF3067
:100480007047000010B540F2026000F0E9FE074C32
:10049000402303221021204600F050FD20468023F7
:1004A0000322BDE81040102100F048BD00080140C3
:1004B0000907090E002806DA00F00F0000F1E0201D
:1004C00080F8141D704700F1E02080F80014704798
:1004D000F0B50446806985B010F8027C10F8012C54
:1004E000394610A000F09CF8D4E906CED4E90412F5
:1004F000D4E90163E06825688DE807503246294653
:10050000144800F08DF8012F07D0022F07D0032FD9
:1005100001D16D1C256005B0F0BDA81900E0A81B35
:100520002060F8E70D0A5356435F48616E646C65BE
:10053000725F432C20535643206E756D62657220A6
:100540006973203078253032782C2030782530328D
:10055000780D0A00C0170008134882B0016841F402
:10056000700101601148016841F0010101604168BA
:1005700041F080014160002144F620620091009B1F
:100580005B1C00939342FAD34160C1620168084A40
:10059000114001604FF41F018160016821F4802146
:1005A000016002B000F08ABE88ED00E00010024059
:1005B000FFFFF6FE10B5174C0121204600F0C6FFE4
:1005C000002825D01449486810F0030F00F10100FD
:1005D000486012D18A68B2F5967F01D3FF20087077
:1005E000962A01D80120087091F90000FA2A01D852
:1005F000104401E002EB400088608A680121204637
:1006000000F088FF2046BDE81040012100F09BBFAC
:1006100010BD0000003401400C00002000F0B2BA10
:100620000FB4054B10B503A9044A029800F01CF85A
:1006300010BC5DF814FB0000210F0008280000200A
:10064000004870472C00002002E008C8121F08C1B3
:10065000002AFAD170477047002001E001C1121F43
:10066000002AFBD1704700002DE9FF4F8DB00F46E7
:100670000546002606E025280BD0DDE90F1290473D
:100680006D1C761C28780028F5D111B03046BDE8E5
:10069000F08F0024A246A1460122E94900E004436C
:1006A00015F8013F203B02FA03F00842F7D1287801
:1006B0002A2810D06FF02F022878A0F130010929E4
:1006C00014D80AEB8A0102EB410144F0020400EB6A
:1006D000010A6D1CF0E701CF5FEA000A03D544F47C
:1006E0000054CAF1000A44F002046D1C28782E2838
:1006F00017D115F8010F44F004042A280ED06FF02A
:100700002F022878A0F1300109290AD809EB8901C4
:1007100002EB410100EB01096D1CF2E757F8049B65
:100720006D1C28786C280FD006DC4C2817D0682860
:100730000DD06A2814D104E0742810D07A280FD183
:100740000DE044F400140AE044F4801401E044F4A1
:1007500040146978814202D104F580146D1C6D1C2F
:1007600028786E281ED00CDC632830D004DC0028EA
:100770008BD0582811D19FE0642867D069280CD10C
:1007800064E073282DD004DC6F2872D0702804D167
:1007900094E075286ED078286DD0DDE90F1290476F
:1007A000761C4BE1C4F30250022806D0032809D07E
:1007B000042801CF09D0066040E101CFF117C0E95C
:1007C00000613BE101CF068038E1067036E117F8A1
:1007D000040B8DF8000000208DF80100EB4601208D
:1007E00003E057F804BB4FF0FF3061074FF0000102
:1007F00002D40DE008F10101884649450FDA804531
:10080000F8DB1BF808100029F4D108E008F1010119
:1008100088468142FADB1BF808100029F6D1DDE991
:100820000F23AAEB08008146214600F031F930443D
:1008300000EB080604E0DDE90F121BF8010B9047FE
:10084000B8F10108F7D221464846F2E00A21C4F384
:1008500002524FF0000B0891022A04D001CFC117B9
:10086000032A09D00AE0FF1D27F00707F7E8020175
:1008700008E02CE01EE01FE000B2C117042A01D1FD
:1008800040B2C117021E71F1000206DA0023D0EB5C
:10089000030063EB01012D2202E0220504D52B2287
:1008A0008DF82420012203E0E20701D02022F7E79F
:1008B000904653E00A210BE0102109E010214FF08F
:1008C000000B44F004044FF00809089103E00821EC
:1008D0004FF0000B0891C4F30252022A04D001CF5A
:1008E0000021032A06D006E0FF1D27F00707F7E8DE
:1008F000020103E080B2042A00D1C0B24FF0000828
:1009000022072BD52A78702A07D0DDF820C08CF07A
:10091000100C5CEA0B0C05D00EE040228DF8242070
:10092000012208E050EA010306D030238DF824307C
:100930008DF8252002229046089B83F0080353EA95
:100940000B030BD150EA010201D1620706D5302218
:100950008DF824204FF00108A9F101092A78582ABE
:1009600004D038A20B9208AA0A920BE03AA2F9E747
:100970005B46089AFFF788FC0B9B9B5C0A9A521E09
:100980000A92137050EA0102F2D10A98ADEB00000E
:1009900000F1200B600702D524F4803401E04FF011
:1009A0000109D94502DDA9EB0B0000E0002000EBB6
:1009B0000B0141440890AAEB010AE00306D4DDE9EB
:1009C0000F232146504600F063F806444FF000091B
:1009D00008E009A911F80900DDE90F12904709F1B3
:1009E0000109761CC145F4DBE0030CD5DDE90F23DA
:1009F0002146504600F04CF8064404E0DDE90F12B1
:100A000030209047761C0899481E08900029F5DC94
:100A100008E00A980A990078491C0A91DDE90F124A
:100A20009047761CBBF10001ABF1010BF1DC2146D4
:100A30005046DDE90F2300F019F806446D1C21E64D
:100A400009280100303132333435363738396162A4
:100A50006364656600000000303132333435363768
:100A60003839414243444546000000002DE9F04139
:100A7000044600251E461746880404D405E039467E
:100A80002020B0476D1C641EF9D52846BDE8F081D2
:100A90002DE9F041044600251E469046C80301D5C5
:100AA000302700E02027880404D505E04146384679
:100AB000B0476D1C641EF9D52846BDE8F0810000E2
:100AC0002DE9F041194C0546606840282AD2184F9C
:100AD000082D0ED0174E0A2D1CD00D2D1AD02946E8
:100AE000384600F019FE60683554401C6060BDE86F
:100AF000F08108B1401E60602946384600F00CFEC7
:100B00002021384600F008FE29463846BDE8F0416D
:100B100000F002BE012118B1002261703254E4E7F6
:100B20006170E4E7002060606070E0E7040000208E
:100B3000003801403000002030B591B044216846B3
:100B4000FFF76FFB0B4C6078002810D065680A49EE
:100B50002A466846FFF74CFB0020606060701DB1BC
:100B60004021684600F036F804A0FFF759FD11B0A7
:100B700030BD000004000020300000200D0A726F1C
:100B80006F743E0038B500200B4D8DF80000094C05
:100B90000521284600F08DFD01280AD16946284626
:100BA00000F0ACFD2078002803D19DF80000FFF78D
:100BB00087FF38BD040000200038014010B500F068
:100BC00069F9BDE8104001A0FFF72ABD0D0A726F58
:100BD0006F743E0010B5044661A1FFF72DFB00289D
:100BE0002CD061A12046FFF727FB00283AD060A156
:100BF0002046FFF721FB002843D05FA12046FFF7E6
:100C00001BFB002841D004225CA12046FFF722FBF9
:100C100000283ED007225BA12046FFF71BFB0028DF
:100C200054D0042259A12046FFF714FB00285CD0C1
:100C30002146BDE8104057A0FFF7F2BC5BA0FFF7CC
:100C4000EFFC60A0FFF7ECFC65A0FFF7E9FC69A0F2
:100C5000FFF7E6FC70A0FFF7E3FCBDE8104076A0CC
:100C6000FFF7DEBC75A0FFF7DBFCBFF34F8F7848C2
:100C70000168784A01F4E06111430160BFF34F8FCE
:100C8000FEE7BDE8104000F05BBABDE8104000F0A0
:100C900011BB201DFFF7EBFA00220446012804D007
:100CA000022C06D0032C08D10DE00321042001DF23
:100CB00002E00321042002DF02462146BDE8104085
:100CC00065A0FFF7ADBC042003DFF5E7E01DFFF7EB
:100CD000CEFA0446014666A0FFF7A2FC2246BDE814
:100CE00010400121654800F015BC201DFFF7BFFA38
:100CF0000446014662A0FFF793FC21461E2C21D03A
:100D00000DDC63480A2914D00B2914D0142914D0FF
:100D1000152C23D18021BDE8104000F00DB91F290A
:100D200014D0282916D0292C18D1BDE8104000F085
:100D300049BC402102E04021EDE78021BDE81040A0
:100D400000F0F8B8BDE8104000F00ABCBDE8104063
:100D500000F01CBCBDE8104000F02EBC10BD00002F
:100D600068656C70000000007265626F6F7400004F
:100D700070656E6473760000737663007376633A11
:100D80000000000074696D6572373A006C65643A62
:100D9000000000000D0A556E6B6E6F776E20636F5A
:100DA0006D6D616E643A2025730D0A000D0A41765F
:100DB00061696C61626C6520636F6D6D616E6473F7
:100DC0003A0000000D0A202068656C70202D205329
:100DD000686F7720746869732068656C7000000024
:100DE0000D0A20207265626F6F74202D205265629B
:100DF0006F6F74000D0A202070656E647376202D6D
:100E00002050656E6453565F48616E646C65722055
:100E100054726967676572000D0A2020737663203B
:100E20002D205356435F48616E646C657220547286
:100E300069676765720000000D0A00000D0A72659F
:100E4000626F6F74696E672E2E2E0D0A000000000F
:100E50000CED00E00400FA0553564320256420728F
:100E60006573756C74203D2025640D0A0000000038
:100E700064757479203D2025640D0A00003401401A
:100E80006C65645F6E756D203D2025640D0A000061
:100E90000008014010B540F2026000F0E1F940F2B4
:100EA0000E6000F0DDF91C4C4FF400730322182192
:100EB000204600F043F8231503220421204600F0C9
:100EC0003DF8164C204600F0C3FB4FF4E1312046BC
:100ED00000F08AFB0421204600F00AFC082120468D
:100EE00000F025FC40F20531204600F0F7FB40F20F
:100EF0000731204600F0E8FB40F20631204600F0C2
:100F0000E3FB204600F0D0FB02220121BDE81040A7
:100F1000252000F0B7B8000000080140003801406B
:100F200010B50446C1B2024800F0F6FB204610BDE1
:100F30000038014041617047016170472DE9F0437D
:100F400001F00F04CD0602D5042A19D01443002560
:100F50004FF00F095FF0010202FA05F61E401AD0A9
:100F600007684FEA850C09FA0CF827EA080704FA23
:100F70000CF848EA0708282908D0482908D008E0D2
:100F8000C26B44F003041A43C263E0E7466100E029
:100F90000661C0F800806D1CADB2082DDCD30825B9
:100FA00002FA05F61E4016D047684FEA8508A8F1F8
:100FB000200809FA08FC27EA0C0704FA08FC4CEAA6
:100FC000070C282902D0482902D002E0466100E03F
:100FD0000661C0F804C06D1CADB2102DE0D3BDE8B1
:100FE000F083704780210148FFF7A4BF000801404B
:100FF00080210148FFF7A0BF0008014040210148BF
:10100000FFF798BF0008014040210148FFF794BF57
:101010000008014000F0AEF9FFF7D0FD00F006F83F
:10102000FFF78AFD6220401EFDD2F9E70E480168F5
:1010300041F400710160FFF725FA00F0EBF90B496C
:10104000002048600A48C068403080F30988094998
:10105000F02081F8140D00F09FF9032080F314882C
:10106000BFF36F8F00F0C2F914ED00E01C00002008
:10107000700000200EE000E0002211462C2000F05D
:1010800001B80000F0B5234B0646002518680F464E
:101090002C46C0F3022007281AD01868C0F302209B
:1010A000062817D01868C0F3022005280DD018684C
:1010B000C0F30220042810D01868C0F302200328CF
:1010C0000ED04FF4A06000F027F802252C4608E06F
:1010D000042406E00125032403E00325012400E0A5
:1010E0000425C5F104008740C4F104010F20C84065
:1010F0001040384306F1E021000181F8000406F0B9
:101100001F01012088407109890001F1E021C1F827
:101110000001F0BD0CED00E00249084302490860FF
:10112000704700000000FA050CED00E0024A114093
:10113000014302480160704780FFFF1F08ED00E097
:101140000248016841F080510160704704ED00E001
:1011500070B539A588B02ECD8DE82E0037A2044693
:10116000D2E90012CDE9041234A20020D2E9001223
:10117000CDE90612344A5168344BC1F3810525B1DB
:101180003349012D32D0022D01D019462EE053688B
:1011900003F48033B3F5803F11D02E4B516855686E
:1011A000C1F383412D0101D541F0100155686D0057
:1011B00001D541F020010F2910D2891C15E0D36A16
:1011C00013F0804F08D0244B516801F40031B1F581
:1011D000003FE3D1214BE1E70B46F5E7A1F10F0515
:1011E0002F2D01D8491C00E03F2159435368C3F318
:1011F00003131DF8035021FA05F3556804AEC5F337
:1012000002255268755D23FA05F5C2F3C22206AEC7
:10121000B25C23FA02F244B1012C08D0022C08D0AF
:10122000032C00D1104608B070BD0846FBE71846F5
:10123000F9E72846F7E70000000000000000000082
:1012400001020304060708090010024000127A0098
:1012500040787D0100093D00006CDC0220BCBE002E
:10126000054901EB90110A6800F01F030120984026
:1012700002430A607047000000100240054901EB7C
:1012800090110A6800F01F030120984082430A6011
:101290007047000000100240054901EB90110A68F8
:1012A00000F01F030120984002430A6070470000CD
:1012B0000010024000B501DF00BD00002A480021F7
:1012C000026842F4803202604FF6FF730268491CE4
:1012D00012F4003F01D19942F8D10168890300D48A
:1012E000FEE7C16941F08051C16120490A6842F4BA
:1012F00040420A604268426042684260426842F48A
:1013000080624260426822F440324260426842F4A5
:10131000403242604268164B1A404260426842F4D2
:10132000C0124260026842F080720260026892015C
:10133000FCD50A6842F480320A604A68D203FCD5C0
:101340000A6842F400320A604A689203FCD5416898
:1013500021F003014160416841F0020141604168B0
:101360000907FCD5704700000010024000700040E3
:10137000FFFFC3B710B5FFF7EFF84FF4C060FFF7FA
:101380006FFF4FF48031C802FFF7D0FEBDE8104078
:101390004FF4A060FFF7C0BE70B50E484FF47A71ED
:1013A0000068B0FBF1F0401EB0F1807F11D24FF029
:1013B000E024606165170F212846FFF779F80020C7
:1013C000A061072020612846BDE870400121FFF799
:1013D0006FB8FEE7000000200348016809B1491E0C
:1013E000016000F05FB8000018000020FFF7FAFD70
:1013F000FFF70AFEFAE7FFF701FEFFF7F9FDFAE74C
:10140000FFF7F6FDFFF700FEFAE7FFF7F7FDFFF73E
:10141000E9FDFAE730B51C481A4C00F16001C0E95B
:1014200000411A4B00224FF400510261C0E902133F
:101430009C63C468CB02E363144C154D4034856152
:10144000C0E9074104F5FE54C0E90942A563446AB6
:10145000E363104D104C0563C0E90D4104F5FE54E3
:10146000C0E90F42A563C46BE3630C4C0C4D84646C
:10147000C0E9135105F5FE51C0E915128C63406DAA
:10148000C36330BDED1300087000002090200020E1
:10149000F713000801140008D04000200B140008C6
:1014A000D060002010B50F4C41F288312068401CFC
:1014B000B0FBF1F2206001FB1200002810D161683E
:1014C000481C00F0030208A0A260FFF7A9F8D4E9C5
:1014D0000101884204D00E48016841F0805101604A
:1014E00010BD00001C0000206375727220746173CF
:1014F0006B206964203D2025642C206E6578742063
:101500007461736B206964203D2025640D0A00001E
:1015100004ED00E039B1012907D0022907D00329E1
:1015200000D1026470474263704782637047C263B0
:101530007047016821F0010101607047016841F0C6
:10154000010101607047C94301617047C2680069C9
:101550000A40084202D00AB10120704700207047BB
:1015600010B50848FFF7E5FF074C80230322102140
:101570002046FFF7E3FC2046BDE810408021FFF73E
:10158000D9BC0000003401400010014010B50848EB
:10159000FFF7CFFF074C8023032210212046FFF7DF
:1015A000CDFC2046BDE810408021FFF7C5BC0000FF
:1015B00000340140001001400148FFF7BABF0000AD
:1015C0000034014010B58023032218210448FFF79E
:1015D000B5FCFFF751FDBDE810400248FFF7AEBF74
:1015E000001001400034014070B5134B04460D4615
:1015F0000020E11A1A159C421BD005DC0F49611826
:1016000017D0914208D114E0914212D0B1F56C4F3D
:1016100002D10320FFF79CFD00EB5500B0FBF5F174
:101620004FF6F07201EA020001F00F010843A060DA
:1016300070BD0220EEE70000004C004000BCFFBF80
:101640004068C0F308007047C1F30801416070476B
:10165000134B10B5C21A1915984213D007DC114A62
:1016600080180CD088421AD140F212440FE08A420E
:101670000BD0B2F56C4F12D140F20E3407E040F2BD
:10168000114404E040F2134401E040F214442046C7
:10169000FFF702FE2046BDE81040FFF7EFBD10BD8A
:1016A000004C004000BCFFBFC16841F40051C16064
:1016B000704700EB9110006801F01F02012191407A
:1016C000084000D00120704700EB9110026801F043
:1016D0001F03012199408A430260704700EB91107B
:1016E000026801F01F03012199400A43026070471C
:1016F000C26822F004020A43C260704770B50C460B
:10170000054605212846FFF7D4FF0028F9D02846D2
:10171000FFF796FF207070BD10B50446FFF794FFE9
:1017200007212046FFF7C5FF0028F9D010BDC26889
:1017300022F008020A43C260704700404040404027
:101740004040404041414141414040404040404094
:1017500040404040404040404040400502020202BC
:1017600002020202020202020202022020202020C3
:10177000202020202002020202020202909090907B
:101780009090101010101010101010101010101059
:1017900010101010101002020202020288888888BD
:1017A00088880808080808080808080808080808B9
:1017B0000808080808080202020240003B17000857
:1017C0000D0A52305B3078253038785D2C2052314C
:1017D0005B3078253038785D2C2052325B307825AC
:1017E0003038785D2C2052335B3078253038785D86
:1017F0002C205231325B3078253038785D2C204CEB
:10180000525B3078253038785D2C2052455B30783B
:10181000253038785D2C20785053525B3078253055
:1018200038785D0D0A00000048180008000000200C
:10183000300000004806000878180008300000203A
:10184000A0A5000058060008000E270700000000B1
:101850000000000001000000000000000000000087
:101860000000000000000000000000000000000078
:08187000000000000000000070
:0400000508000131BD
:00000001FF
